{
  "address": "0xa90e8D1Bc9a3e654a887D3212BB4eBFF33A73eCE",
  "abi": [
    {
      "inputs": [
        {
          "internalType": "address",
          "name": "exampleExternalContractAddress",
          "type": "address"
        }
      ],
      "stateMutability": "nonpayable",
      "type": "constructor"
    },
    {
      "anonymous": false,
      "inputs": [
        {
          "indexed": true,
          "internalType": "address",
          "name": "sender",
          "type": "address"
        },
        {
          "indexed": false,
          "internalType": "uint256",
          "name": "amount",
          "type": "uint256"
        }
      ],
      "name": "Stake",
      "type": "event"
    },
    {
      "inputs": [
        {
          "internalType": "address",
          "name": "",
          "type": "address"
        }
      ],
      "name": "balances",
      "outputs": [
        {
          "internalType": "uint256",
          "name": "",
          "type": "uint256"
        }
      ],
      "stateMutability": "view",
      "type": "function"
    },
    {
      "inputs": [],
      "name": "deadline",
      "outputs": [
        {
          "internalType": "uint256",
          "name": "",
          "type": "uint256"
        }
      ],
      "stateMutability": "view",
      "type": "function"
    },
    {
      "inputs": [],
      "name": "exampleExternalContract",
      "outputs": [
        {
          "internalType": "contract ExampleExternalContract",
          "name": "",
          "type": "address"
        }
      ],
      "stateMutability": "view",
      "type": "function"
    },
    {
      "inputs": [],
      "name": "execute",
      "outputs": [],
      "stateMutability": "nonpayable",
      "type": "function"
    },
    {
      "inputs": [],
      "name": "openForWithdrawal",
      "outputs": [
        {
          "internalType": "bool",
          "name": "",
          "type": "bool"
        }
      ],
      "stateMutability": "view",
      "type": "function"
    },
    {
      "inputs": [],
      "name": "stake",
      "outputs": [],
      "stateMutability": "payable",
      "type": "function"
    },
    {
      "inputs": [],
      "name": "threshold",
      "outputs": [
        {
          "internalType": "uint256",
          "name": "",
          "type": "uint256"
        }
      ],
      "stateMutability": "view",
      "type": "function"
    },
    {
      "inputs": [],
      "name": "timeLeft",
      "outputs": [
        {
          "internalType": "uint256",
          "name": "",
          "type": "uint256"
        }
      ],
      "stateMutability": "view",
      "type": "function"
    },
    {
      "inputs": [],
      "name": "withdraw",
      "outputs": [],
      "stateMutability": "nonpayable",
      "type": "function"
    },
    {
      "stateMutability": "payable",
      "type": "receive"
    }
  ],
  "transactionHash": "0x0293ccfb61e41c7293e8399159723d77d52ff94af7bf3dfd68803dec80122249",
  "args": [
    "0x9850C92d321fe23F810521bafe9Ea352242682eC"
  ],
  "numDeployments": 1,
  "solcInputHash": "ed912b0dfe17cfba4904b1dfd4de6815",
  "bytecode": "0x608060405261000f42603c61009a565b6002556003805460ff1916905534801561002857600080fd5b506040516106bf3803806106bf8339810160408190526100479161006c565b600080546001600160a01b0319166001600160a01b03929092169190911790556100be565b60006020828403121561007d578081fd5b81516001600160a01b0381168114610093578182fd5b9392505050565b600082198211156100b957634e487b7160e01b81526011600452602481fd5b500190565b6105f2806100cd6000396000f3fe60806040526004361061008a5760003560e01c80633ccfd60b116100595780633ccfd60b1461011157806342cde4e81461012657806361461954146101425780639f75f22714610157578063a4778fde1461018f57600080fd5b80631300a6d11461009e57806327e235e3146100c657806329dcb0cf146100f35780633a4b66f11461010957600080fd5b36610099576100976101b9565b005b600080fd5b3480156100aa57600080fd5b506100b36102af565b6040519081526020015b60405180910390f35b3480156100d257600080fd5b506100b36100e1366004610549565b60016020526000908152604090205481565b3480156100ff57600080fd5b506100b360025481565b6100976101b9565b34801561011d57600080fd5b506100976102d3565b34801561013257600080fd5b506100b3670de0b6b3a764000081565b34801561014e57600080fd5b5061009761047c565b34801561016357600080fd5b50600054610177906001600160a01b031681565b6040516001600160a01b0390911681526020016100bd565b34801561019b57600080fd5b506003546101a99060ff1681565b60405190151581526020016100bd565b600254421061020f5760405162461bcd60e51b815260206004820152601860248201527f5374616b696e6720706572696f642068617320656e646564000000000000000060448201526064015b60405180910390fd5b600034116102545760405162461bcd60e51b8152602060048201526012602482015271086c2dcdcdee840e6e8c2d6ca4060408aa8960731b6044820152606401610206565b3360009081526001602052604081208054349290610273908490610577565b909155505060405134815233907febedb8b3c678666e7f36970bc8f57abf6d8fa2e828c0da91ea5b75bf68ed101a9060200160405180910390a2565b600060025442106102c05750600090565b426002546102ce919061058f565b905090565b60025442101561032f5760405162461bcd60e51b815260206004820152602160248201527f446561646c696e6520686173206e6f7420796574206265656e207265616368656044820152601960fa1b6064820152608401610206565b60035460ff1615156001146103865760405162461bcd60e51b815260206004820152601a60248201527f5468726573686f6c6420686173206e6f74206265656e206d65740000000000006044820152606401610206565b33600090815260016020526040902054806103da5760405162461bcd60e51b81526020600482015260146024820152734e6f2066756e647320746f20776974686472617760601b6044820152606401610206565b336000818152600160205260408082208290555190919083908381818185875af1925050503d806000811461042b576040519150601f19603f3d011682016040523d82523d6000602084013e610430565b606091505b50509050806104785760405162461bcd60e51b81526020600482015260146024820152732330b4b632b2103a379039b2b7321022ba3432b960611b6044820152606401610206565b5050565b6002544210156104c25760405162461bcd60e51b815260206004820152601160248201527010dbdb991a5d1a5bdb881b9bdd081b595d607a1b6044820152606401610206565b670de0b6b3a7640000471061053a5760008054906101000a90046001600160a01b03166001600160a01b031663522e1177476040518263ffffffff1660e01b81526004016000604051808303818588803b15801561051f57600080fd5b505af1158015610533573d6000803e3d6000fd5b5050505050565b6003805460ff19166001179055565b60006020828403121561055a578081fd5b81356001600160a01b0381168114610570578182fd5b9392505050565b6000821982111561058a5761058a6105a6565b500190565b6000828210156105a1576105a16105a6565b500390565b634e487b7160e01b600052601160045260246000fdfea26469706673582212208ac0a55be6c137625f072a223f2c800c2ae33ee494f353e7e3ed78c8a0db8ded64736f6c63430008040033",
  "devdoc": {
    "kind": "dev",
    "methods": {},
    "version": 1
  },
  "userdoc": {
    "kind": "user",
    "methods": {},
    "version": 1
  },
  "storageLayout": {
    "storage": [
      {
        "astId": 19,
        "contract": "contracts/Staker.sol:Staker",
        "label": "exampleExternalContract",
        "offset": 0,
        "slot": "0",
        "type": "t_contract(ExampleExternalContract)12"
      },
      {
        "astId": 23,
        "contract": "contracts/Staker.sol:Staker",
        "label": "balances",
        "offset": 0,
        "slot": "1",
        "type": "t_mapping(t_address,t_uint256)"
      },
      {
        "astId": 32,
        "contract": "contracts/Staker.sol:Staker",
        "label": "deadline",
        "offset": 0,
        "slot": "2",
        "type": "t_uint256"
      },
      {
        "astId": 35,
        "contract": "contracts/Staker.sol:Staker",
        "label": "openForWithdrawal",
        "offset": 0,
        "slot": "3",
        "type": "t_bool"
      }
    ],
    "types": {
      "t_address": {
        "encoding": "inplace",
        "label": "address",
        "numberOfBytes": "20"
      },
      "t_bool": {
        "encoding": "inplace",
        "label": "bool",
        "numberOfBytes": "1"
      },
      "t_contract(ExampleExternalContract)12": {
        "encoding": "inplace",
        "label": "contract ExampleExternalContract",
        "numberOfBytes": "20"
      },
      "t_mapping(t_address,t_uint256)": {
        "encoding": "mapping",
        "key": "t_address",
        "label": "mapping(address => uint256)",
        "numberOfBytes": "32",
        "value": "t_uint256"
      },
      "t_uint256": {
        "encoding": "inplace",
        "label": "uint256",
        "numberOfBytes": "32"
      }
    }
  }
}