{
  "address": "0x2245843725792E83E2B51F2716f4268d3715ad55",
  "abi": [
    {
      "inputs": [
        {
          "internalType": "address payable",
          "name": "diceGameAddress",
          "type": "address"
        }
      ],
      "stateMutability": "nonpayable",
      "type": "constructor"
    },
    {
      "anonymous": false,
      "inputs": [
        {
          "indexed": true,
          "internalType": "address",
          "name": "previousOwner",
          "type": "address"
        },
        {
          "indexed": true,
          "internalType": "address",
          "name": "newOwner",
          "type": "address"
        }
      ],
      "name": "OwnershipTransferred",
      "type": "event"
    },
    {
      "anonymous": false,
      "inputs": [
        {
          "indexed": true,
          "internalType": "address",
          "name": "sender",
          "type": "address"
        },
        {
          "indexed": false,
          "internalType": "uint256",
          "name": "amount",
          "type": "uint256"
        }
      ],
      "name": "Received",
      "type": "event"
    },
    {
      "inputs": [],
      "name": "diceGame",
      "outputs": [
        {
          "internalType": "contract DiceGame",
          "name": "",
          "type": "address"
        }
      ],
      "stateMutability": "view",
      "type": "function"
    },
    {
      "inputs": [],
      "name": "owner",
      "outputs": [
        {
          "internalType": "address",
          "name": "",
          "type": "address"
        }
      ],
      "stateMutability": "view",
      "type": "function"
    },
    {
      "inputs": [],
      "name": "renounceOwnership",
      "outputs": [],
      "stateMutability": "nonpayable",
      "type": "function"
    },
    {
      "inputs": [],
      "name": "riggedRoll",
      "outputs": [],
      "stateMutability": "payable",
      "type": "function"
    },
    {
      "inputs": [
        {
          "internalType": "address",
          "name": "newOwner",
          "type": "address"
        }
      ],
      "name": "transferOwnership",
      "outputs": [],
      "stateMutability": "nonpayable",
      "type": "function"
    },
    {
      "inputs": [
        {
          "internalType": "address payable",
          "name": "to",
          "type": "address"
        },
        {
          "internalType": "uint256",
          "name": "amount",
          "type": "uint256"
        }
      ],
      "name": "withdraw",
      "outputs": [],
      "stateMutability": "nonpayable",
      "type": "function"
    },
    {
      "stateMutability": "payable",
      "type": "receive"
    }
  ],
  "transactionHash": "0x420717428c4d817a08e80fb10024128a11ca5b5de6bc86558bf2593607a74da5",
  "args": [
    "0x4A7de50F27a2CAE2B70A45EA97E8ecA0c7e989Da"
  ],
  "numDeployments": 1,
  "solcInputHash": "04ec3d0b2dce21a1d497156e61685ac2",
  "bytecode": "0x608060405234801561001057600080fd5b5060405161069438038061069483398101604081905261002f916100ad565b6100383361005d565b600180546001600160a01b0319166001600160a01b03929092169190911790556100dd565b600080546001600160a01b038381166001600160a01b0319831681178455604051919092169283917f8be0079c531659141344cd1fd0a4f28419497f9722a3daafe3b4186f6b6457e09190a35050565b6000602082840312156100bf57600080fd5b81516001600160a01b03811681146100d657600080fd5b9392505050565b6105a8806100ec6000396000f3fe6080604052600436106100595760003560e01c80636b5e97f81461009a578063715018a6146100a45780638da5cb5b146100b95780638e288fd1146100ef578063f2fde38b1461010f578063f3fef3a31461012f57600080fd5b366100955760405134815233907f88a5966d370b9919b20f3e2c13ff65706f196a4e32cc2c12bf57088f885258749060200160405180910390a2005b600080fd5b6100a261014f565b005b3480156100b057600080fd5b506100a26102a4565b3480156100c557600080fd5b506000546001600160a01b03165b6040516001600160a01b03909116815260200160405180910390f35b3480156100fb57600080fd5b506001546100d3906001600160a01b031681565b34801561011b57600080fd5b506100a261012a3660046104d9565b6102b8565b34801561013b57600080fd5b506100a261014a3660046104fd565b610331565b600061015c600143610529565b60015460408051924060208085018290526bffffffffffffffffffffffff193060601b1685840152640100000000600160c01b0393901b9290921663affed0e017901b60548301529150600090606c0160408051601f198184030181529190528051602090910120905060006101d3601083610550565b90506005811161025257600160009054906101000a90046001600160a01b03166001600160a01b0316637d789dee66071afd498d00006040518263ffffffff1660e01b81526004016000604051808303818588803b15801561023457600080fd5b505af1158015610248573d6000803e3d6000fd5b5050505050505050565b60405162461bcd60e51b815260206004820181905260248201527f4e6f742057696e6e696e672e20526f6c6c20616761696e2c20706c656173652160448201526064015b60405180910390fd5b505050565b6102ac61041a565b6102b66000610474565b565b6102c061041a565b6001600160a01b0381166103255760405162461bcd60e51b815260206004820152602660248201527f4f776e61626c653a206e6577206f776e657220697320746865207a65726f206160448201526564647265737360d01b6064820152608401610296565b61032e81610474565b50565b61033961041a565b804710156103805760405162461bcd60e51b8152602060048201526014602482015273496e73756666696369656e742062616c616e636560601b6044820152606401610296565b6000826001600160a01b03168260405160006040518083038185875af1925050503d80600081146103cd576040519150601f19603f3d011682016040523d82523d6000602084013e6103d2565b606091505b505090508061029f5760405162461bcd60e51b81526020600482015260146024820152732330b4b632b2103a379039b2b7321022ba3432b960611b6044820152606401610296565b6000546001600160a01b031633146102b65760405162461bcd60e51b815260206004820181905260248201527f4f776e61626c653a2063616c6c6572206973206e6f7420746865206f776e65726044820152606401610296565b600080546001600160a01b038381166001600160a01b0319831681178455604051919092169283917f8be0079c531659141344cd1fd0a4f28419497f9722a3daafe3b4186f6b6457e09190a35050565b6001600160a01b038116811461032e57600080fd5b6000602082840312156104eb57600080fd5b81356104f6816104c4565b9392505050565b6000806040838503121561051057600080fd5b823561051b816104c4565b946020939093013593505050565b8181038181111561054a57634e487b7160e01b600052601160045260246000fd5b92915050565b60008261056d57634e487b7160e01b600052601260045260246000fd5b50069056fea26469706673582212200f7fe9793719024dfaf6285b7bea7395cfb8f21ff89c5c06a9a57194f2701f1464736f6c63430008110033",
  "devdoc": {
    "kind": "dev",
    "methods": {
      "owner()": {
        "details": "Returns the address of the current owner."
      },
      "renounceOwnership()": {
        "details": "Leaves the contract without owner. It will not be possible to call `onlyOwner` functions anymore. Can only be called by the current owner. NOTE: Renouncing ownership will leave the contract without an owner, thereby removing any functionality that is only available to the owner."
      },
      "transferOwnership(address)": {
        "details": "Transfers ownership of the contract to a new account (`newOwner`). Can only be called by the current owner."
      }
    },
    "version": 1
  },
  "userdoc": {
    "kind": "user",
    "methods": {},
    "version": 1
  },
  "storageLayout": {
    "storage": [
      {
        "astId": 7,
        "contract": "contracts/RiggedRoll.sol:RiggedRoll",
        "label": "_owner",
        "offset": 0,
        "slot": "0",
        "type": "t_address"
      },
      {
        "astId": 308,
        "contract": "contracts/RiggedRoll.sol:RiggedRoll",
        "label": "diceGame",
        "offset": 0,
        "slot": "1",
        "type": "t_contract(DiceGame)298"
      }
    ],
    "types": {
      "t_address": {
        "encoding": "inplace",
        "label": "address",
        "numberOfBytes": "20"
      },
      "t_contract(DiceGame)298": {
        "encoding": "inplace",
        "label": "contract DiceGame",
        "numberOfBytes": "20"
      }
    }
  }
}